:020000040000FA
:0400000010EF00F00D
:020004000000FA
:1000200024EF00F0C10E606F900E616F000E626FE2
:10003000000E636FC10E646F180E656F000E666F61
:10004000000E676F36EF00F0E86A806F816F826F95
:10005000836F846F856F866F866F876F886F896FF8
:100060008A6F8B6F8C6F8D6F12EF00F060BF808195
:100070004AEF00F060C081F0814761BF818161AFCC
:1000800081917F0E815F4EEF00F061C082F0828F20
:1000900059EF00F064BF83813AEF00F064C084F050
:1000A000844765BF848165AF84917F0E845F45EF8F
:1000B00000F065C085F0858F5EEF00F081518425EA
:1000C0007F0F866F64EF00F08251850368EF00F0C8
:1000D000F3508C6F8C478CBF8D8F8CAF8D9FF450FD
:1000E0008B6F8B4700008B9F8CB18B818CA18B9188
:1000F0008C9186518A6F8A438ABF8B8F8AAF8B9F80
:1001000082EF00F080518319E8B08A8FE8A08A9FBF
:020110000000ED
:020000040030CA
:0100010005F9
:0100020010ED
:0100030010EC
:01000500807A
:010006008178
:00000001FF
